S010000064656275672F4D4F502E733139C2
S315200000000248854600F03AF8FEE7C04600C00120C7
S3152000001080B582B000AF0200FB1D1A70C0460B4BA4
S315200000201B889BB21A0080231340F8D0074AFB1D79
S315200000301B789BB29380FB1D1B780A2B02D10D20C7
S31520000040FFF7E6FFC046BD4602B080BD0010014066
S3152000005080B582B000AF786006E07B685A1C7A6073
S315200000601B781800FFF7D4FF7B681B78002BF4D190
S31520000070C046C046BD4602B080BDC04690B585B0DC
S3152000008000AF334BFB60334BBB6000F067F800F0EA
S315200000902DFF00F02EFFFB681B6AF8680122042161
S315200000A09847FB68DB69FA6810009847BB68DB69EC
S315200000B0BA6810009847FC1D00F028F90300237049
S315200000C0FB1D1B78082B29D89A00234BD3181B68B5
S315200000D09F46BB681B6AB86800220221984724E025
S315200000E0BB681B6A02225142B868002298471CE06E
S315200000F0BB681B6AB86800220021984715E0BB68D8
S315200001001B6A02225242B868002198470DE0BB685C
S315200001101B6AB86802220021984706E0BB681B6A62
S31520000120B868002200219847C046BA68FB681100CB
S31520000130180000F056FE031E03D1142000F066F8C6
S31520000140AFE7C04600231800BD4605B090BDC046A7
S315200001504C0F0020241000204810002080B500AF4E
S31520000160114B18221A60114B114A1A60114B1B6849
S31520000170104B00221A600F4B1A680E4B0E490A4389
S315200001801A600E4B1B880D4B00221A800C4B1B68E5
S315200001900B4B00221A600A4B1A68094B09490A437D
S315200001A01A60C046BD4680BD30380240080C024069
S315200001B055555555000C024055550055040C024026
S315200001C00C0C0240AAAA000080B500AF0C4B0022FE
S315200001D01A600C4B29221A600B4B00221A60084B1E
S315200001E005221A60C046064B1A6880235B0213401C
S315200001F0F9D1034B00221A60C046BD4680BDC046D9
S3152000020010E000E014E000E018E000E080B584B0E3
S3152000021000AF78600023FB600AE0FFF7D5FFFFF709
S31520000220D3FFFFF7D1FFFFF7CFFFFB680133FB605A
S31520000230FB687A689A42F0D8C046C046BD4604B0EC
S3152000024080BD80B582B000AF78607A6813005B010C
S315200002509B1A9B009B18DB001800FFF7D7FFC046B0
S31520000260BD4602B080BD80B582B000AF78607B68A5
S31520000270042B19D87B689A000D4BD3181B689F4610
S315200002800C4B10221A700FE00A4B20221A700BE03A
S31520000290084B40221A7007E0064B80221A7003E0B2
S315200002A0044B00221A70C046C046BD4602B080BD2F
S315200002B06C100020150C024080B582B000AF124AA7
S315200002C0FB1D12781A70FB1D1B780822134001D0E3
S315200002D0042315E0FB1D1B780422134001D00323C1
S315200002E00EE0FB1D1B780222134001D0022307E0FB
S315200002F0FB1D1B780122134001D0012300E00023BF
S315200003001800BD4602B080BD110C024090B587B0E2
S3152000031000AF3B00164A13CA13C312681A600123A2
S315200003207B6119E07B691800FFF79DFFFFF7C4FF8B
S3152000033003003B613B69002B0BD00020FFF793FFA6
S315200003407B69013B9A003B69013BD3183A00D35C99
S3152000035009E07B6901337B617B69042BE2DD0020A8
S31520000360FFF781FFFF231800BD4607B090BDC046AA
S315200003708010002080B584B000AF0200FB1D1A70EB
S31520000380094A0F217B1812781A70FA1D7B181278E9
S315200003901B781343DBB2044A04210B43DBB21370F0
S315200003A0C046BD4604B080BD1410024080B584B05E
S315200003B000AF0200FB1D1A700D4A0F217B18127820
S315200003C01A70FB1D1B785BB2DB435BB27A1812787E
S315200003D052B213405AB27B181A70054A7B181B7802
S315200003E004210B43DBB21370C046BD4604B080BD6A
S315200003F01410024080B582B000AF0200FB1D1A70B7
S31520000400FFF7E2FE4020FFF7B5FF074AFB1D1B78EA
S315200004101370FFF7D9FE4020FFF7C8FFFFF7D4FE81
S31520000420C046BD4602B080BD1510024080B582B0E0
S3152000043000AF0200FB1D1A700120FFF7B7FF022054
S31520000440FFF7B4FFFB1D1B781800FFF7D3FFC0464C
S31520000450BD4602B080BD80B582B000AF0200FB1D54
S315200004601A700120FFF786FF0220FFF79FFFFB1D72
S315200004701B781800FFF7BEFFC046BD4602B080BD00
S3152000048080B582B000AF4020FFF774FFFFF79CFED7
S31520000490FFF79AFE064AFB1D12781A704020FFF7D6
S315200004A085FFFB1D1B781800BD4602B080BDC046E7
S315200004B01110024090B583B000AF0B4B0B4A1A6067
S315200004C00120FFF773FF0220FFF754FFFC1DFFF703
S315200004D0D7FF03002370044B054A1A60FB1D1B78C7
S315200004E01800BD4603B090BD0010024055550000CF
S315200004F05555555590B583B000AF0B4B0B4A1A6036
S315200005000120FFF737FF0220FFF734FFFC1DFFF71E
S31520000510B7FF03002370044B054A1A60FB1D1B78A6
S315200005201800BD4603B090BD00100240555500008E
S315200005305555555580B582B000AF0200FB1D1A7087
S31520000540C046FFF7B7FF03001A0080231340802B15
S31520000550F7D00820FFF75AFEFB1D1B781800FFF77F
S3152000056065FF2D20FFF752FEC046BD4602B080BD76
S3152000057080B500AF3820FFF7DDFF0E20FFF7DAFF4A
S315200005800120FFF7D7FF0620FFF7D4FFC046BD4660
S3152000059080BD80B582B000AF0200FB1D1A70C04638
S315200005A0FFF788FF03001A0080231340802BF7D023
S315200005B00820FFF72BFEFB1D1B781800FFF74BFFCB
S315200005C02D20FFF723FEC046BD4602B080BD80B574
S315200005D084B000AF786039607B68DAB20F217B186F
S315200005E0013A1A703B68022B04D17B187A181278CC
S315200005F040321A700F23FB181B7880225242134375
S31520000600DBB21800FFF712FFC046BD4604B080BD1E
S3152000061080B584B000AF786039600F217B187A6886
S3152000062012781A703B681A787B681A703B687A18B9
S3152000063012781A70C046BD4604B080BD90B587B00A
S3152000064000AF78607B681B78002B05D17B681B7810
S31520000650402B01D9012300E000231A1C012313405B
S31520000660DAB27B689B78002B05D17B689B78402B80
S3152000067001D9012300E00023191C01230B40DBB222
S315200006801343DBB21A007B685B78002B05D17B68AD
S315200006905B78802B01D9012300E000231A437B6875
S315200006A0DB78002B05D17B68DB78802B01D90123F1
S315200006B000E00023134301D00023B6E07B685B787B
S315200006C01A007B68DB78D31AD9175A184A407B68F8
S315200006D01B7819007B689B78CB1AD9175B184B407F
S315200006E09A4204DD1723FB1801221A7003E0172310
S315200006F0FB1800221A701723FB181B78002B0ED02C
S315200007007A687B68013319001000FFF781FF7B6848
S315200007109A1C7B68033319001000FFF779FF7B686A
S315200007201A787B689B789A420ED97A687B6802335E
S3152000073019001000FFF76CFF7B685A1C7B68033397
S3152000074019001000FFF764FF7B6899787B681A7898
S315200007500F23FB188A1A1A707B68DB781A007B68CD
S315200007605B78D31AD9175A184A400E23FB181A70E9
S315200007701623FB1800221A701523FB187A68527864
S315200007801A707B685A787B68DB789A4204D21423E5
S31520000790FB1801221A7003E01423FB18FF221A709B
S315200007A07B681B783B6139E01723FB181B78002BED
S315200007B008D01523FB181B783A691100180000F0A1
S315200007C09BFB07E01523FB181A783B6911001800DC
S315200007D000F092FB16203B1839180E22BA18097819
S315200007E012788A181A703B181B785A000F243B1966
S315200007F01B789A420FDB1522BB18B9181422BA1897
S31520000800097812788A181A703B1839183A19097813
S3152000081012788A1A1A703B6901333B617B689B7890
S315200008201A003B699342BFDD01231800BD4607B07D
S3152000083090BDF0B587B000AF78607B681A78142138
S315200008407B181A707B685A787B185A707B681A78DE
S315200008507B689B78D318DAB210257B191A707B68CF
S315200008605A787B195A700C26BB190C007A181288F4
S315200008701A80BB1902217A1912885A52BB191800FC
S31520000880FFF7DCFE7B681A787B689B78D318DAB290
S3152000089021007B181A707B685A787B185A707B68FF
S315200008A01A787B689B78D318DAB27B191A707B6822
S315200008B05A787B68DB78D318DAB27B195A70BB1961
S315200008C00C007A1812881A80BB1902217A1912880C
S315200008D05A52BB191800FFF7B1FE7B681A787B685D
S315200008E09B78D318DAB221007B181A707B685A7865
S315200008F07B68DB78D318DAB27B185A707B681A7853
S315200009007B191A707B685A787B68DB78D318DAB241
S315200009107B195A70BB190C007A1812881A80BB19D9
S3152000092002217A1912885A52BB191800FFF786FE3F
S315200009307B681A7821007B181A707B685A787B6846
S31520000940DB78D318DAB27B185A707B681A787B1951
S315200009501A707B685A787B195A70BB197A181288D4
S315200009601A80BB1902217A1912885A52BB1918000B
S31520000970FFF764FEC046BD4607B0F0BDB0B588B0EF
S3152000098000AF78607B681A7814217B181A707B6810
S315200009905A787B185A707B685B68FB612AE0FB6992
S315200009A01A780C217B181A70FB695A787B185A70B2
S315200009B014257B191A7808203B181A707B195A7847
S315200009C03B185A707B181A783B189A700C007B18C3
S315200009D05A783B18DA703B181800FFF72FFE3B19A0
S315200009E01A787B191A703B195A787B195A70FB6949
S315200009F05B68FB61FB69002BD1D1C046C046BD4672
S31520000A0008B0B0BD80B586B000AF78607B681B6843
S31520000A101B683B6100237B6133E07B68DA687B6877
S31520000A201B680C3319007B695B00CB181B78D31825
S31520000A30FB607B681A697B681B680C3319007B692D
S31520000A405B00CB185B78D318BB607B68DA687B6861
S31520000A501B680C3319007B695B00CB181B78D018F8
S31520000A607B681A697B681B680C3319007B695B00FD
S31520000A70CB185B78D318190000F03EFA7B69013356
S31520000A807B617A693B699A42C7DBC046C046BD4650
S31520000A9006B080BD80B584B000AF78607B681B68E7
S31520000AA01B68BB600023FB601BE07B68DA687B6801
S31520000AB01B680C331900FB685B00CB181B78D01819
S31520000AC07B681A697B681B680C331900FB685B001E
S31520000AD0CB185B78D318190000F011FAFB680133A4
S31520000AE0FB60FA68BB689A42DFDBC046C046BD465B
S31520000AF004B080BD80B584B000AF78607B681800F4
S31520000B00FFF7C8FF7B685A687B68DB68D318FB60F1
S31520000B107B689A687B681B69D318BB60FB68002BCF
S31520000B200CDC7B685B68D9175A184A407B685A6088
S31520000B307B685A687B68DB68D318FB60FB68802B70
S31520000B400ADD7B685B685A427B685A607B685A6814
S31520000B507B68DB68D318FB60BB68002B0CDC7B68EA
S31520000B609B68D9175A184A407B689A607B689A68AE
S31520000B707B681B69D318BB60BB68402B0ADD7B688A
S31520000B809B685A427B689A607B689A687B681B6977
S31520000B90D318BB607B68FA68DA607B68BA681A612A
S31520000BA07B681800FFF72EFFC046BD4604B080BD07
S31520000BB080B584B000AFF860B9607A60FB68BA6827
S31520000BC05A60FB687A689A60C046BD4604B080BD0C
S31520000BD080B584B000AF78607B681800FFF75AFFB5
S31520000BE07B681A697B689B68D318FB60FB68002BBF
S31520000BF005DBFB683B2B02DC7B68FA681A617B68A5
S31520000C001800FFF7FFFEC046BD4604B080BD90B574
S31520000C1089B000AF786039603B68DA683B685B680A
S31520000C20D318FB613B681B69BB617B68DB687B6112
S31520000C307B681B693B613B685B685B42FB60FA69CA
S31520000C407B699A4210DBBA693B699A420CDB3B69A5
S31520000C500833BA699A4207DC3B681C6A3B689A6883
S31520000C60F9683B681800A047C046BD4609B090BD4C
S31520000C70B0B58AB000AF786018243B19144A23CA4D
S31520000C8023C30C257B19134A03CA03C312781A708F
S31520000C90FFF764FAFFF76CFC01210120FFF797FCB0
S31520000CA03B197B627B68002B09D07B197B6206E0AF
S31520000CB07B6A5A1C7A621B781800FFF76AFC7B6AEB
S31520000CC01B78002BF4D1C046C046BD460AB0B0BD45
S31520000CD0901000209C10002080B582B000AF786074
S31520000CE07B68DB687E2B01DD012300E000231800F2
S31520000CF0BD4602B080BD80B584B000AF78607B6809
S31520000D001800FFF7C7FE7B685A687B68DB68D31834
S31520000D10FB607B689A687B681B69D318BB607B681D
S31520000D20FA68DA607B68BA681A617B681800FFF790
S31520000D3069FEC046BD4604B080BD80B586B000AF12
S31520000D40786039607B68DA687B681B685B68D318D3
S31520000D507B617B681A697B681B689B68D3183B613B
S31520000D603B68DA683B681B685B68D318FB603B68A6
S31520000D701A693B681B689B68D318BB607B68DA6876
S31520000D803B68DB689A420FDB7B68DB68FA689A422D
S31520000D900ADB7B681A693B681B699A4204DB7B681D
S31520000DA01B69BA689A4215DA3B68DA687B68DB68A1
S31520000DB09A4211DB3B68DB687A699A420CDB3B6816
S31520000DC01A697B681B699A4206DB3B681B693A698C
S31520000DD09A4201DB012300E000231800BD4606B03D
S31520000DE080BD80B588B000AF786039603B68DB682D
S31520000DF0002B0BDD3B68DB68802B07DC3B681B691F
S31520000E00002B03DD3B681B69402B04DD0020FFF728
S31520000E102FFF012361E07B68DB687B617B681B69B0
S31520000E203B613B68DB68FB603B681B69BB603A68DB
S31520000E307B6811001800FFF780FF031E4CD00023AB
S31520000E40FB6143E00023BB6137E07B681A68FB69DE
S31520000E5004335B00D31804331B781A007B69D2183D
S31520000E603B681968BB6904335B00CB1804331B78D5
S31520000E701900FB68CB189A421CD17B681A68FB695B
S31520000E8004335B00D31805331B781A003B69D2184C
S31520000E903B681968BB6904335B00CB1805331B78A4
S31520000EA01900BB68CB189A4204D10120FFF7E0FE57
S31520000EB0012312E0BB690133BB613B681B681B68D9
S31520000EC0BA699A42C1DBFB690133FB617B681B6807
S31520000ED01B68FA699A42B5DB00231800BD4608B0A4
S31520000EE080BD80B500AFC046BD4680BDF0DF7047EF
S31520000EF0C046F1DF7047C046F2DF7047C046F3DFD9
S31520000F007047C0460C0000000400000004000000EA
S31520000F100001000201000101010201030200020199
S31520000F200202020303010302000000000000000089
S31520000F30000000000000000000000000000000008B
S31520000F40000000000000000000000000040F002048
S31520000F500000000000000000010000000100000069
S31520000F60050A0020950A0020F50A0020B10B002072
S31520000F701B00000005000000090000000000010021
S31520000F80020003000400040104020403040404050F
S31520000F9004060407040803080208010800080007DD
S31520000FA000060005000400030002000102030204FB
S31520000FB00205000000000000700F00200000000065
S31520000FC0000000007300000019000000050A002040
S31520000FD0950A0020D10B0020B10B0020160000003E
S31520000FE008000000060000000200030001010401C1
S31520000FF000020102020203020402050200030203A8
S31520001000030305030104040402050305010604067F
S315200010100007050700000000000000000000000097
S3152000102000000000DC0F002000000000000000008F
S315200010304600000019000000050A0020950A00203D
S31520001040F70C0020B10B00201C0100201C01002001
S31520001050FE0000201C010020E0000020F0000020FF
S31520001060D20000201C0100200E010020A00200203A
S315200010708002002088020020900200209802002092
S315200010800102030A0405060B0708090C0E000F0DC2
S3152000109047616D65204F766572212000596F752056
S30D200010A0576F6E2100000000CD
S70520000000DA
