S010000064656275672F4D4F502E733139C2
S315200000000248854600F03AF8FEE7C04600C00120C7
S3152000001080B582B000AF0200FB1D1A70C0460B4BA4
S315200000201B889BB21A0080231340F8D0074AFB1D79
S315200000301B789BB29380FB1D1B780A2B02D10D20C7
S31520000040FFF7E6FFC046BD4602B080BD0010014066
S3152000005080B582B000AF786006E07B685A1C7A6073
S315200000601B781800FFF7D4FF7B681B78002BF4D190
S31520000070C046C046BD4602B080BDC04690B585B0DC
S3152000008000AF254BFB60254BBB6000F049F800F024
S3152000009015FE00F016FEBB68DB69BA6810009847AB
S315200000A0FA68BB681100180000F085FDFB68DB6963
S315200000B0FA6810009847642000F08AF8FC1D00F0CA
S315200000C007F903002370FB1D1B78092B05D01ADCCA
S315200000D0032B09D0062B0FD015E0BB681B6AB86826
S315200000E005220021984715E0BB681B6A052252426B
S315200000F0B868002198470DE0FA68BB68110018001F
S3152000010000F0B6FD06E0BB681B6AB8680022002135
S315200001109847C046BFE7C0461C0D0020880D00202A
S3152000012080B500AF114B18221A60114B114A1A6084
S31520000130114B1B68104B00221A600F4B1A680E4B8E
S315200001400E490A431A600E4B1B880D4B00221A805B
S315200001500C4B1B680B4B00221A600A4B1A68094B82
S3152000016009490A431A60C046BD4680BD3038024060
S31520000170080C024055555555000C02405555005562
S31520000180040C02400C0C0240AAAA000080B500AF65
S315200001900C4B00221A600C4B29221A600B4B0022B2
S315200001A01A60084B05221A60C046064B1A6880233F
S315200001B05B021340F9D1034B00221A60C046BD46AC
S315200001C080BDC04610E000E014E000E018E000E04A
S315200001D080B584B000AF78600023FB600AE0FFF7AB
S315200001E0D5FFFFF7D3FFFFF7D1FFFFF7CFFFFB6860
S315200001F00133FB60FB687A689A42F0D8C046C04655
S31520000200BD4604B080BD80B582B000AF78607A6804
S3152000021013005B019B1A9B009B18DB001800FFF75D
S31520000220D7FFC046BD4602B080BD80B582B000AFC4
S3152000023078607B68042B19D87B689A000D4BD318FD
S315200002401B689F460C4B10221A700FE00A4B202287
S315200002501A700BE0084B40221A7007E0064B8022EA
S315200002601A7003E0044B00221A70C046C046BD46F1
S3152000027002B080BDAC0D0020150C024080B582B0C6
S3152000028000AF124AFB1D12781A70FB1D1B7808223C
S31520000290134001D0042315E0FB1D1B7804221340D4
S315200002A001D003230EE0FB1D1B780222134001D050
S315200002B0022307E0FB1D1B780122134001D00123F6
S315200002C000E000231800BD4602B080BD110C02409C
S315200002D090B587B000AF3B00164A13CA13C3126805
S315200002E01A6001237B6119E07B691800FFF79DFFE7
S315200002F0FFF7C4FF03003B613B69002B0BD00020B6
S31520000300FFF793FF7B69013B9A003B69013BD318BA
S315200003103A00D35C09E07B6901337B617B69042B5E
S31520000320E2DD0020FFF781FFFF231800BD4607B05E
S3152000033090BDC046C00D002080B584B000AF02003D
S31520000340FB1D1A70094A0F217B1812781A70FA1DA4
S315200003507B1812781B781343DBB2044A04210B4323
S31520000360DBB21370C046BD4604B080BD14100240F7
S3152000037080B584B000AF0200FB1D1A700D4A0F2114
S315200003807B1812781A70FB1D1B785BB2DB435BB2BD
S315200003907A18127852B213405AB27B181A70054A4C
S315200003A07B181B7804210B43DBB21370C046BD4675
S315200003B004B080BD1410024080B582B000AF0200A8
S315200003C0FB1D1A70FFF7E2FE4020FFF7B5FF074A34
S315200003D0FB1D1B781370FFF7D9FE4020FFF7C8FFDF
S315200003E0FFF7D4FEC046BD4602B080BD15100240C0
S315200003F080B582B000AF0200FB1D1A700120FFF706
S31520000400B7FF0220FFF7B4FFFB1D1B781800FFF78C
S31520000410D3FFC046BD4602B080BD80B582B000AFD6
S315200004200200FB1D1A700120FFF786FF0220FFF74E
S315200004309FFFFB1D1B781800FFF7BEFFC046BD4679
S3152000044002B080BD80B582B000AF4020FFF774FFB8
S31520000450FFF79CFEFFF79AFE064AFB1D12781A70DC
S315200004604020FFF785FFFB1D1B781800BD4602B014
S3152000047080BDC0461110024090B583B000AF0B4B33
S315200004800B4A1A600120FFF773FF0220FFF754FF83
S31520000490FC1DFFF7D7FF03002370044B054A1A60A3
S315200004A0FB1D1B781800BD4603B090BD001002400E
S315200004B0555500005555555590B583B000AF0B4B9B
S315200004C00B4A1A600120FFF737FF0220FFF734FF9F
S315200004D0FC1DFFF7B7FF03002370044B054A1A6083
S315200004E0FB1D1B781800BD4603B090BD00100240CE
S315200004F0555500005555555580B582B000AF0200C0
S31520000500FB1D1A70C046FFF7B7FF03001A008023B1
S315200005101340802BF7D00820FFF75AFEFB1D1B78CF
S315200005201800FFF765FF2D20FFF752FEC046BD4697
S3152000053002B080BD80B500AF3820FFF7DDFF0E206A
S31520000540FFF7DAFF0120FFF7D7FF0620FFF7D4FFDA
S31520000550C046BD4680BD80B582B000AF0200FB1DFF
S315200005601A70C046FFF788FF03001A008023134045
S31520000570802BF7D00820FFF72BFEFB1D1B781800D9
S31520000580FFF74BFF2D20FFF723FEC046BD4602B0E6
S3152000059080BD80B584B000AF786039607B68DAB200
S315200005A00F217B18013A1A703B68022B04D17B1865
S315200005B07A18127840321A700F23FB181B78802283
S315200005C052421343DBB21800FFF712FFC046BD4666
S315200005D004B080BD80B584B000AF786039600F214B
S315200005E07B187A6812781A703B681A787B681A70BA
S315200005F03B687A1812781A70C046BD4604B080BD92
S3152000060090B587B000AF78607B681B78002B05D14A
S315200006107B681B78402B01D9012300E000231A1C9C
S3152000062001231340DAB27B689B78002B05D17B68C7
S315200006309B78402B01D9012300E00023191C0123BC
S315200006400B40DBB21343DBB21A007B685B78002BCE
S3152000065005D17B685B78802B01D9012300E000233C
S315200006601A437B68DB78002B05D17B68DB78802BEF
S3152000067001D9012300E00023134301D00023B6E073
S315200006807B685B781A007B68DB78D31AD9175A18EF
S315200006904A407B681B7819007B689B78CB1AD91750
S315200006A05B184B409A4204DD1723FB1801221A706F
S315200006B003E01723FB1800221A701723FB181B7858
S315200006C0002B0ED07A687B68013319001000FFF7E3
S315200006D081FF7B689A1C7B68033319001000FFF7A3
S315200006E079FF7B681A787B689B789A420ED97A685C
S315200006F07B68023319001000FFF76CFF7B685A1CD9
S315200007007B68033319001000FFF764FF7B68997834
S315200007107B681A780F23FB188A1A1A707B68DB7895
S315200007201A007B685B78D31AD9175A184A400E23C9
S31520000730FB181A701623FB1800221A701523FB18B3
S315200007407A6852781A707B685A787B68DB789A4286
S3152000075004D21423FB1801221A7003E01423FB1879
S31520000760FF221A707B681B783B6139E01723FB1840
S315200007701B78002B08D01523FB181B783A6911002B
S31520000780180000F0A1FA07E01523FB181A783B6938
S315200007901100180000F098FA16203B1839180E227E
S315200007A0BA18097812788A181A703B181B785A00DA
S315200007B00F243B191B789A420FDB1522BB18B91858
S315200007C01422BA18097812788A181A703B18391820
S315200007D03A19097812788A1A1A703B6901333B61F3
S315200007E07B689B781A003B699342BFDD0123180082
S315200007F0BD4607B090BDF0B587B000AF78607B6886
S315200008001A7814217B181A707B685A787B185A70CC
S315200008107B681A787B689B78D318DAB210257B1907
S315200008201A707B685A787B195A700C26BB190C00F3
S315200008307A1812881A80BB1902217A1912885A52FC
S31520000840BB191800FFF7DCFE7B681A787B689B785B
S31520000850D318DAB221007B181A707B685A787B1875
S315200008605A707B681A787B689B78D318DAB27B1922
S315200008701A707B685A787B68DB78D318DAB27B19D2
S315200008805A70BB190C007A1812881A80BB190221DB
S315200008907A1912885A52BB191800FFF7B1FE7B68E5
S315200008A01A787B689B78D318DAB221007B181A70E5
S315200008B07B685A787B68DB78D318DAB27B185A7053
S315200008C07B681A787B191A707B685A787B68DB7884
S315200008D0D318DAB27B195A70BB190C007A18128811
S315200008E01A80BB1902217A1912885A52BB1918008C
S315200008F0FFF786FE7B681A7821007B181A707B68C2
S315200009005A787B68DB78D318DAB27B185A707B6802
S315200009101A787B191A707B685A787B195A70BB191A
S315200009207A1812881A80BB1902217A1912885A520B
S31520000930BB191800FFF764FEC046BD4607B0F0BDE0
S31520000940B0B588B000AF78607B681A7814217B1820
S315200009501A707B685A787B185A707B685B68FB61D3
S315200009602AE0FB691A780C217B181A70FB695A78E1
S315200009707B185A7014257B191A7808203B181A7090
S315200009807B195A783B185A707B181A783B189A703C
S315200009900C007B185A783B18DA703B181800FFF7C2
S315200009A02FFE3B191A787B191A703B195A787B1936
S315200009B05A70FB695B68FB61FB69002BD1D1C0468D
S315200009C0C046BD4608B0B0BD80B586B000AF7860E1
S315200009D07B681B681B683B6100237B6133E07B6877
S315200009E0DA687B681B680C3319007B695B00CB18BF
S315200009F01B78D318FB607B681A697B681B680C33ED
S31520000A0019007B695B00CB185B78D318BB607B68C9
S31520000A10DA687B681B680C3319007B695B00CB188E
S31520000A201B78D0187B681A697B681B680C33190001
S31520000A307B695B00CB185B78D318190000F044F96A
S31520000A407B6901337B617A693B699A42C7DBC04681
S31520000A50C046BD4606B080BD80B584B000AF786084
S31520000A607B681B681B68BB600023FB601BE07B6800
S31520000A70DA687B681B680C331900FB685B00CB18AF
S31520000A801B78D0187B681A697B681B680C331900A1
S31520000A90FB685B00CB185B78D318190000F017F9B8
S31520000AA0FB680133FB60FA68BB689A42DFDBC0460D
S31520000AB0C046BD4604B080BD80B584B000AF786026
S31520000AC07B681800FFF7C8FF7B685A687B68DB687D
S31520000AD0D318FB607B689A687B681B69D318BB6058
S31520000AE0FB68002B0CDC7B685B68D9175A184A40D8
S31520000AF07B685A607B685A687B68DB68D318FB6022
S31520000B00BB68002B0CDC7B689B68D9175A184A40B7
S31520000B107B689A607B689A687B681B69D318BB6080
S31520000B20BB68402B0ADD7B689B685A427B689A60CB
S31520000B307B689A687B681B69D318BB607B68FA68F8
S31520000B40DA607B68BA681A617B681800FFF73CFF99
S31520000B50C046BD4604B080BD80B584B000AFF86005
S31520000B60B9607A60FB68BA685A60FB687A689A60EE
S31520000B70C046BD4604B080BD80B584B000AF786065
S31520000B807B681800FFF768FF7B681A697B689B689B
S31520000B90D318FB60FB68002B05DBFB683B2B02DCD4
S31520000BA07B68FA681A617B681800FFF70DFFC0465C
S31520000BB0BD4604B080BD90B589B000AF786039607D
S31520000BC03B68DA683B685B68D318FB613B681B6946
S31520000BD0BB617B68DB687B617B681B693B613B682B
S31520000BE05B685B42FB60FA697B699A4210DBBA69F3
S31520000BF03B699A420CDB3B690833BA699A4207DCA7
S31520000C003B681C6A3B689A68F9683B681800A047ED
S31520000C10C046BD4609B090BDB0B586B000AF78607D
S31520000C207B68DB687E2B1CDD08243B190F4A23CA10
S31520000C3023C3FFF775FAFFF77DFC01210120FFF79B
S31520000C40A8FC3B197B6106E07B695A1C7A611B78FC
S31520000C501800FFF780FC7B691B78002BF4D1012359
S31520000C6000E000231800BD4606B0B0BDD00D002020
S31520000C7080B582B000AF7860396000F022F83B681A
S31520000C800122DA603B6801221A617B687322DA60EE
S31520000C907B6819221A617B685B697A68100098471D
S31520000CA03B685B693A6810009847C046BD4602B06B
S31520000CB080BD80B500AFC046BD4680BDF0DF704721
S31520000CC0C046F1DF7047C046F2DF7047C046F3DF0B
S31520000CD07047C0460C00000004000000040000001D
S31520000CE000010002010001010102010302000201CC
S31520000CF002020203030103020000000000000000BC
S31520000D0000000000000000000000000000000000BD
S31520000D10000000000000000000000000D40C0020AD
S31520000D200700000001000000010000000100000093
S31520000D30C9090020590A0020B90A0020590B0020B1
S31520000D401B00000005000000090000000000010053
S31520000D500200030004000401040204030404040541
S31520000D60040604070408030802080108000800070F
S31520000D70000600050004000300020001020302042D
S31520000D800205000000000000400D002000000000C9
S31520000D90000000007300000019000000C9090020AF
S31520000DA0590A0020790B0020590B002064020020EC
S31520000DB0440200204C020020540200205C02002045
S31520000DC00102030A0405060B0708090C0E000F0D85
S31120000DD047616D65204F7665722120007A
S70520000000DA
