S010000064656275672F4D4F502E733139C2
S315200000000248854600F040FEFEE7C04600C00120BB
S3152000001080B582B000AF0200FB1D1A70C0460B4BA4
S315200000201B889BB21A0080231340F8D0074AFB1D79
S315200000301B789BB29380FB1D1B780A2B02D10D20C7
S31520000040FFF7E6FFC046BD4602B080BD0010014066
S3152000005080B582B000AF786006E07B685A1C7A6073
S315200000601B781800FFF7D4FF7B681B78002BF4D190
S31520000070C046C046BD4602B080BDC04680B500AF72
S315200000800B4B1B889BB20A4A01218B439BB21380E0
S31520000090084B012252421A80054B1B889BB2044A08
S315200000A003210B439BB21380C046BD4680BDC0468C
S315200000B0001000402C10004080B500AF194B1822CC
S315200000C01A60194B1A68184B8021C9010A431A6015
S315200000D0164B174A1A60174B174A1A60174B164ABF
S315200000E01A60144B1B68134B00221A60114B1A68B6
S315200000F0104B13490A431A60124B1B88114B0022DE
S315200001001A80114B1B68104B00221A600E4B1A687E
S315200001100D4B0E490A431A60FFF7B0FFC046BD4695
S3152000012080BDC046303802404438024008ED00E029
S3152000013000C00120000C024055555555080C0240C0
S3152000014055550055040C02400C0C0240AAAA00008A
S3152000015080B500AF0C4B00221A600C4B29221A6086
S315200001600B4B00221A60084B05221A60C046064B2C
S315200001701A6880235B021340F9D1034B00221A60D0
S31520000180C046BD4680BDC04610E000E014E000E059
S3152000019018E000E080B584B000AF78600023FB60F3
S315200001A00AE0FFF7D5FFFFF7D3FFFFF7D1FFFFF7F1
S315200001B0CFFFFB680133FB60FB687A689A42F0D870
S315200001C0C046C046BD4604B080BD80B582B000AFF3
S315200001D078607A6813005B019B1A9B009B18DB00F2
S315200001E01800FFF7D7FFC046BD4602B080BD80B5D8
S315200001F082B000AF78607B68042B19D87B689A00A0
S315200002000D4BD3181B689F460C4B10221A700FE01B
S315200002100A4B20221A700BE0084B40221A7007E086
S31520000220064B80221A7003E0044B00221A70C04647
S31520000230C046BD4602B080BD9C100020150C024071
S3152000024080B582B000AF124AFB1D12781A70FB1DD2
S315200002501B780822134001D0042315E0FB1D1B78D0
S315200002600422134001D003230EE0FB1D1B7802223B
S31520000270134001D0022307E0FB1D1B780122134007
S3152000028001D0012300E000231800BD4602B080BD46
S31520000290110C024090B587B000AF3B00164A13CA36
S315200002A013C312681A6001237B6119E07B69180069
S315200002B0FFF79DFFFFF7C4FF03003B613B69002B5F
S315200002C00BD00020FFF793FF7B69013B9A003B6927
S315200002D0013BD3183A00D35C09E07B6901337B618B
S315200002E07B69042BE2DD0020FFF781FFFF23180046
S315200002F0BD4607B090BDC046B010002080B584B082
S3152000030000AF0200FB1D1A70094A0F217B181278D4
S315200003101A70FA1D7B1812781B781343DBB2044A35
S3152000032004210B43DBB21370C046BD4604B080BD2A
S315200003301410024080B584B000AF0200FB1D1A7075
S315200003400D4A0F217B1812781A70FB1D1B785BB2A1
S31520000350DB435BB27A18127852B213405AB27B183A
S315200003601A70054A7B181B7804210B43DBB21370E5
S31520000370C046BD4604B080BD1410024080B582B090
S3152000038000AF0200FB1D1A70FFF7E2FE4020FFF7C8
S31520000390B5FF074AFB1D1B781370FFF7D9FE4020D7
S315200003A0FFF7C8FFFFF7D4FEC046BD4602B080BDAA
S315200003B01510024080B582B000AF0200FB1D1A70F6
S315200003C00120FFF7B7FF0220FFF7B4FFFB1D1B78C4
S315200003D01800FFF7D3FFC046BD4602B080BD80B5EA
S315200003E082B000AF0200FB1D1A700120FFF786FFC6
S315200003F00220FFF79FFFFB1D1B781800FFF7BEFFAB
S31520000400C046BD4602B080BD80B582B000AF402058
S31520000410FFF774FFFFF79CFEFFF79AFE064AFB1DC7
S3152000042012781A704020FFF785FFFB1D1B781800F5
S31520000430BD4602B080BDC0461110024090B583B0C3
S3152000044000AF0B4B0B4A1A600120FFF773FF022007
S31520000450FFF754FFFC1DFFF7D7FF03002370044B63
S31520000460054A1A60FB1D1B781800BD4603B090BDD7
S3152000047000100240555500005555555590B583B08E
S3152000048000AF0B4B0B4A1A600120FFF737FF022003
S31520000490FFF734FFFC1DFFF7B7FF03002370044B63
S315200004A0054A1A60FB1D1B781800BD4603B090BD97
S315200004B000100240555500005555555580B582B05F
S315200004C000AF0200FB1D1A70C046FFF7B7FF0300FE
S315200004D01A0080231340802BF7D00820FFF75AFEFE
S315200004E0FB1D1B781800FFF765FF2D20FFF752FE36
S315200004F0C046BD4602B080BD80B500AF3820FFF7AC
S31520000500DDFF0E20FFF7DAFF0120FFF7D7FF0620D9
S31520000510FFF7D4FFC046BD4680BD80B582B000AF90
S315200005200200FB1D1A70C046FFF788FF03001A0061
S3152000053080231340802BF7D00820FFF72BFEFB1DCE
S315200005401B781800FFF74BFF2D20FFF723FEC04630
S31520000550BD4602B080BD80B584B000AF78603960FA
S315200005607B68DAB20F217B18013A1A703B68022B9E
S3152000057004D17B187A18127840321A700F23FB1890
S315200005801B78802252421343DBB21800FFF712FF7A
S31520000590C046BD4604B080BD80B584B000AF78604B
S315200005A039600023FB6041E00023BB6038E03B68F4
S315200005B0002B19D07B68FA68D200D258214BB96833
S315200005C0C900CB58D0187A68FB68DB00D3180433EF
S315200005D01A681C49BB68DB00CB1804331B68D31888
S315200005E0190000F070FB18E07B68FA68D200D25838
S315200005F0144BB968C900CB58D0187A68FB68DB0061
S31520000600D31804331A680F49BB68DB00CB180433B0
S315200006101B68D318190000F053FBBB680133BB607D
S31520000620BB680F2BC3DDFB680133FB607A68802330
S315200006305B02D358FA689A42B6DBC046C046BD462E
S3152000064004B080BDD40C002080B584B000AF7860A3
S3152000065039600023FB602CE03B68002B13D07B68BD
S315200006601A68184BF968C900CB58D0187B685A68A5
S315200006701449FB68DB00CB1804331B68D318190018
S3152000068000F021FB12E07B681A680E4BF968C9005E
S31520000690CB58D0187B685A680A49FB68DB00CB1810
S315200006A004331B68D318190000F00AFBFB680133DA
S315200006B0FB60FB68142BCFDDC046C046BD4604B0A8
S315200006C080BDC046540D002080B586B000AF78604E
S315200006D039601723FB1800221A704FE0304B1B8815
S315200006E09BB2DBB21A003F23134014333B612C4BE1
S315200006F01B889BB2DBB21A001F2313400733FB6013
S315200007001723FB1801221A700023BB602AE03B68DE
S31520000710BA68D200D358023B3A699A421FDB3B683B
S31520000720BA68D200D35802333A699A4217DC3A683B
S31520000730BB68DB00D31804331B68023BFA689A4275
S315200007400DDB3A68BB68DB00D31804331B68023321
S31520000750FA689A4203DC1723FB1800221A70BB683A
S315200007600133BB603A6880235B02D358BA689A4249
S3152000077004DA1723FB181B78002BC8D11723FB1884
S315200007801B7801225340DBB2002BA7D17B683A6944
S315200007901A607B68FA685A60C046BD4606B080BDBE
S315200007A024100040B0B584B000AF78607B6801218A
S315200007B01800FFF7F1FE0F257C19FFF76BFD0300EC
S315200007C023707B191B78022B09D17B681C4A9B5C02
S315200007D0022B04D07B681A4A002199542CE00F235F
S315200007E0FB181B78042B09D17B68154A9B5C012BCF
S315200007F004D07B68124A032199541DE00F23FB186D
S315200008001B78082B09D17B680D4A9B5C002B04D0F2
S315200008107B680B4A022199540EE00F23FB181B78A4
S31520000820062B09D17B68064A9B5C032B04D07B6888
S31520000830034A01219954FFE7C046BD4604B0B0BD26
S315200008400400010080B584B000AF78607A68802308
S315200008505B02D358FB6018E0FB685A1E7B68D20007
S31520000860D1587B68FA68D200D150FB68013B7A6880
S31520000870DB00D31804331A687968FB68DB00CB18D1
S3152000088004331A60FB68013BFB60FB68002BE3DC4A
S315200008907B68134A9B5C032B11D016DC002B02D0FD
S315200008A0022B06D011E07B685B685A1F7B685A6072
S315200008B011E07B685B685A1D7B685A600BE07B6899
S315200008C01B685A1F7B681A6005E07B681B685A1DE7
S315200008D07B681A60C046C046BD4604B080BDC0468F
S315200008E00400010080B584B000AF786039607B6871
S315200008F01A683B681B68033B9A4235DB7B681A689B
S315200009003B681B6803339A422EDC7B685A683B6837
S315200009105B68033B9A4227DB7B685A683B685B68C7
S3152000092003339A4220DC7B6801211800FFF78CFEF6
S315200009303A687B6811001800FFF7C6FE3A688023E4
S315200009405B02D358591C3A6880235B02D1503A681F
S3152000095080235B02D358013BFB607B680021180093
S31520000960FFF772FE012300E000231800BD4604B005
S3152000097080BD80B584B000AF78607A6880235B0242
S31520000980D358022B20DD0123FB6016E07B681A6812
S315200009907B68F968C900CB589A420BD17B685A68A4
S315200009A07968FB68DB00CB1804331B689A4201D1B7
S315200009B001230AE0FB680133FB607A6880235B022F
S315200009C0D358FA689A42E1DB00231800BD4604B0EA
S315200009D080BD80B582B000AF78607B681B687D2BB8
S315200009E00BDC7B681B68013307DB7B685B680133A4
S315200009F003DB7B685B683D2B01DD012300E00023E0
S31520000A001800BD4602B080BD80B582B000AF7860C8
S31520000A107A6880235B020221D1507B6846221A60C5
S31520000A207B681B225A607B6841229A607B681B2266
S31520000A30DA607B68034A01219954C046BD4602B05C
S31520000A4080BDC0460400010080B500AF01210E2004
S31520000A50FFF781FD124B1B685A1C114B1A60104B75
S31520000A601B68092B08DD0F4B1B780133DAB20D4BBF
S31520000A701A700B4B00221A60094B1B68DBB230330D
S31520000A80DAB2094B1A70074B1B781800FFF745FDA1
S31520000A90054B1B781800FFF740FDC046BD4680BDBC
S31520000AA0CC0C0020D00C0020D10C002080B582B0C8
S31520000AB000AF786039607B6800211800FFF76CFD75
S31520000AC03B6800211800FFF7BFFDC046BD4602B0B7
S31520000AD080BD80B584B000AF78600120FFF7EEFCC2
S31520000AE07B68FB6006E0FB685A1CFA601B781800DE
S31520000AF0FFF713FDFB681B78002BF4D102210120A0
S31520000B00FFF729FDC046BD4604B080BD80B582B042
S31520000B1000AF00F0D2F800237B600FE00D4B7A681F
S31520000B20D200D0580B4A7B68DB00D31804331B68ED
S31520000B30190000F0C5F87B6801337B607B68532B76
S31520000B40ECDD96235B001800FFF724FBC046BD466C
S31520000B5002B080BDFC0D002090B5364CA54400AFF8
S31520000B60354B00221A60354B30221A70344BFB1855
S31520000B7000221A7000F09EF800F09FF8FFF7BCFCE8
S31520000B80304B1800FFF7A5FF0C243B191800FFF780
S31520000B903BFF3A193B1D11001800FFF795FD3A1D42
S31520000BA03B1911001800FFF781FF32E00C243B1996
S31520000BB01800FFF7F7FD3B191800FFF743FE3A1D13
S31520000BC03B1911001800FFF771FF3A193B1D110060
S31520000BD01800FFF787FE031E01D0FFF735FF0C2410
S31520000BE03B191800FFF7F5FE031E05D13B19180027
S31520000BF0FFF7BFFE031E01D0012200E00022104BAA
S31520000C00FB181A701A7801210A401A709620FFF7ED
S31520000C10C1FA0B4BFB181B7801225340DBB2002B89
S31520000C20C4D1094B1800FFF754FFC046BD46074BF9
S31520000C309D4490BDE4FFFEFFCC0C0020D00C00208C
S31520000C4017000100C0100020D01000201C00010059
S31520000C5090B583B000AF0B4B1800FFF73AFFFC1D91
S31520000C60FFF718FB03002370FB1D1B78012B03D015
S31520000C70FB1D1B78002BF2D1FB1D1B781800BD46EF
S31520000C8003B090BDDC10002080B500AFFFF714FA4A
S31520000C90FFF73CFF01E0FFF75FFFFFF7D9FF031ED9
S31520000CA0F9D1034B1800FFF714FFC046BD4680BD9F
S31520000CB0F0100020F0DF7047C046F1DF7047C046D5
S31520000CC0F2DF7047C046F3DF7047C04600000000E1
S31520000CD000000000020000000200000001000000E9
S31520000CE0020000000000000002000000FFFFFFFFDE
S31520000CF002000000FEFFFFFF02000000FEFFFFFFD4
S31520000D0001000000FEFFFFFF00000000FEFFFFFFC6
S31520000D10FFFFFFFFFEFFFFFFFEFFFFFFFFFFFFFFBF
S31520000D20FEFFFFFF00000000FEFFFFFF01000000A6
S31520000D30FEFFFFFF02000000FEFFFFFF0200000093
S31520000D40FFFFFFFF0200000000000000020000007D
S31520000D5001000000FFFFFFFF02000000000000006E
S31520000D60020000000100000002000000FEFFFFFF5D
S31520000D7001000000FFFFFFFF01000000000000004F
S31520000D800100000001000000010000000200000038
S31520000D9001000000FEFFFFFF00000000FFFFFFFF35
S31520000DA0000000000000000000000000010000001C
S31520000DB0000000000200000000000000FEFFFFFF10
S31520000DC0FFFFFFFFFFFFFFFFFFFFFFFF0000000009
S31520000DD0FFFFFFFF01000000FFFFFFFF02000000F2
S31520000DE0FFFFFFFFFFFFFFFFFEFFFFFF00000000EA
S31520000DF0FEFFFFFF01000000FEFFFFFF1B000000BB
S31520000E001A0000001C0000001A0000001D0000004F
S31520000E101A0000001E0000001A0000001900000041
S31520000E201B0000001A0000001B0000001B00000031
S31520000E301B0000001C0000001B0000001D0000001D
S31520000E401B0000001E0000001B0000001F00000009
S31520000E501B000000200000001B00000017000000FF
S31520000E601C000000180000001C00000019000000F3
S31520000E701C0000001A0000001C0000001F000000DB
S31520000E801C000000200000001C00000021000000C3
S31520000E901C000000220000001C00000017000000BB
S31520000EA01D000000180000001D00000019000000B1
S31520000EB01D000000200000001D0000002100000091
S31520000EC01D000000220000001D000000160000008A
S31520000ED01E000000170000001E0000001800000081
S31520000EE01E000000190000001E0000001700000070
S31520000EF01F000000180000001F000000190000005D
S31520000F001F0000001700000020000000180000004D
S31520000F102000000019000000200000001A00000038
S31520000F202000000018000000210000001900000029
S31520000F30210000001A000000210000001B00000014
S31520000F40220000001C000000220000001D000000FE
S31520000F50220000001E000000220000001F000000EA
S31520000F6022000000200000002200000021000000D6
S31520000F70220000001F0000002300000020000000C7
S31520000F8023000000210000002300000022000000B2
S31520000F9023000000200000002300000021000000A4
S31520000FA02300000022000000230000002000000093
S31520000FB02400000021000000240000002200000080
S31520000FC02400000023000000240000001700000079
S31520000FD02500000018000000250000001900000070
S31520000FE02500000020000000250000002100000050
S31520000FF02500000022000000250000001700000048
S31520001000260000001800000026000000190000003D
S31520001010260000001A000000260000001F00000025
S31520001020260000002000000026000000210000000D
S315200010302600000022000000260000001900000003
S31520001040270000001A000000270000001B000000F7
S31520001050270000001C000000270000001D000000E3
S31520001060270000001E000000270000001F000000CF
S315200010702700000020000000270000001B000000C1
S31520001080280000001C000000280000001D000000B1
S31520001090280000001E000000280000002802002072
S315200010A00802002010020020180200202002002042
S315200010B00102030A0405060B0708090C0E000F0D92
S315200010C0456174656E206170706C65733A2000000E
S315200010D047616D65204F766572210000506C6179FD
S315200010E02067616D653F2028312F302900000000E0
S315200010F053656520796F75206E6578742074696DE7
S30920001100652100003F
S70520000000DA
