S010000064656275672F4D4F502E733139C2
S315200000000248854600F03AF8FEE7C04600C00120C7
S3152000001080B582B000AF0200FB1D1A70C0460B4BA4
S315200000201B889BB21A0080231340F8D0074AFB1D79
S315200000301B789BB29380FB1D1B780A2B02D10D20C7
S31520000040FFF7E6FFC046BD4602B080BD0010014066
S3152000005080B582B000AF786006E07B685A1C7A6073
S315200000601B781800FFF7D4FF7B681B78002BF4D190
S31520000070C046C046BD4602B080BDC04690B583B0DE
S3152000008000AF224B7B6000F045F800F01DFC00F02D
S315200000901EFC7B68DB697A6810009847642000F0B4
S315200000A091F8FC1C00F00EF903002370FB1C1B7852
S315200000B0082BEED89A00164BD3181B689F467B68F0
S315200000C01B6A78680022032198471DE07B681B6A1B
S315200000D00322514278680022984715E07B681B6A04
S315200000E078680022002198470EE07B681B6A03226D
S315200000F0524278680021984706E07B681B6A786838
S31520000100032200219847C046C3E7C046280900209D
S315200001104C09002080B500AF114B18221A60114BF4
S31520000120114A1A60114B1B68104B00221A600F4BA4
S315200001301A680E4B0E490A431A600E4B1B880D4B4C
S3152000014000221A800C4B1B680B4B00221A600A4BAC
S315200001501A68094B09490A431A60C046BD4680BD44
S3152000016030380240080C024055555555000C0240C7
S3152000017055550055040C02400C0C0240AAAA00005A
S3152000018080B500AF0C4B00221A600C4B29221A6056
S315200001900B4B00221A60084B05221A60C046064BFC
S315200001A01A6880235B021340F9D1034B00221A60A0
S315200001B0C046BD4680BDC04610E000E014E000E029
S315200001C018E000E080B584B000AF78600023FB60C3
S315200001D00AE0FFF7D5FFFFF7D3FFFFF7D1FFFFF7C1
S315200001E0CFFFFB680133FB60FB687A689A42F0D840
S315200001F0C046C046BD4604B080BD80B582B000AFC3
S3152000020078607A6813005B019B1A9B009B18DB00C1
S315200002101800FFF7D7FFC046BD4602B080BD80B5A7
S3152000022082B000AF78607B68042B19D87B689A006F
S315200002300D4BD3181B689F460C4B10221A700FE0EB
S315200002400A4B20221A700BE0084B40221A7007E056
S31520000250064B80221A7003E0044B00221A70C04617
S31520000260C046BD4602B080BD70090020150C024074
S3152000027080B582B000AF124AFB1D12781A70FB1DA2
S315200002801B780822134001D0042315E0FB1D1B78A0
S315200002900422134001D003230EE0FB1D1B7802220B
S315200002A0134001D0022307E0FB1D1B7801221340D7
S315200002B001D0012300E000231800BD4602B080BD16
S315200002C0110C024090B587B000AF3B00164A13CA06
S315200002D013C312681A6001237B6119E07B69180039
S315200002E0FFF79DFFFFF7C4FF03003B613B69002B2F
S315200002F00BD00020FFF793FF7B69013B9A003B69F7
S31520000300013BD3183A00D35C09E07B6901337B615A
S315200003107B69042BE2DD0020FFF781FFFF23180015
S31520000320BD4607B090BDC0468409002080B584B084
S3152000033000AF786039600F217B187A6812781A70BE
S315200003403B681A787B681A703B687A1812781A709C
S31520000350C046BD4604B080BD90B587B000AF78607A
S315200003607B681B78002B05D17B681B78402B01D935
S31520000370012300E000231A1C01231340DAB27B6814
S315200003809B78002B05D17B689B78402B01D90123D4
S3152000039000E00023191C01230B40DBB21343DBB220
S315200003A01A007B685B78002B05D17B685B78802BF5
S315200003B001D9012300E000231A437B68DB78002B58
S315200003C005D17B68DB78802B01D9012300E000234F
S315200003D0134301D00023B6E07B685B781A007B6864
S315200003E0DB78D31AD9175A184A407B681B7819002C
S315200003F07B689B78CB1AD9175B184B409A4204DD51
S315200004001723FB1801221A7003E01723FB1800227A
S315200004101A701723FB181B78002B0ED07A687B687E
S31520000420013319001000FFF781FF7B689A1C7B6857
S31520000430033319001000FFF779FF7B681A787B6871
S315200004409B789A420ED97A687B680233190010008D
S31520000450FFF76CFF7B685A1C7B680333190010007A
S31520000460FFF764FF7B6899787B681A780F23FB185F
S315200004708A1A1A707B68DB781A007B685B78D31A35
S31520000480D9175A184A400E23FB181A701623FB1840
S3152000049000221A701523FB187A6852781A707B6826
S315200004A05A787B68DB789A4204D21423FB180122FF
S315200004B01A7003E01423FB18FF221A707B681B783E
S315200004C03B6139E01723FB181B78002B08D0152336
S315200004D0FB181B783A691100180000F0FBF907E0B9
S315200004E01523FB181A783B691100180000F0F2F961
S315200004F016203B1839180E22BA18097812788A184D
S315200005001A703B181B785A000F243B191B789A4205
S315200005100FDB1522BB18B9181422BA1809781278DD
S315200005208A181A703B1839183A19097812788A1AD3
S315200005301A703B6901333B617B689B781A003B69E3
S315200005409342BFDD01231800BD4607B090BDF0B52C
S3152000055087B000AF78607B681A7814217B181A70F0
S315200005607B685A787B185A707B681A787B689B78E8
S31520000570D318DAB210257B191A707B685A787B1942
S315200005805A700C26BB190C007A1812881A80BB19CF
S3152000059002217A1912885A52BB191800FFF7DCFE7D
S315200005A07B681A787B689B78D318DAB221007B188F
S315200005B01A707B685A787B185A707B681A787B6821
S315200005C09B78D318DAB27B191A707B685A787B68C5
S315200005D0DB78D318DAB27B195A70BB190C007A185B
S315200005E012881A80BB1902217A1912885A52BB190D
S315200005F01800FFF7B1FE7B681A787B689B78D318C2
S31520000600DAB221007B181A707B685A787B68DB780F
S31520000610D318DAB27B185A707B681A787B191A704D
S315200006207B685A787B68DB78D318DAB27B195A70E4
S31520000630BB190C007A1812881A80BB1902217A1964
S3152000064012885A52BB191800FFF786FE7B681A7863
S3152000065021007B181A707B685A787B68DB78D31860
S31520000660DAB27B185A707B681A787B191A707B6805
S315200006705A787B195A70BB197A1812881A80BB19B6
S3152000068002217A1912885A52BB191800FFF764FE04
S31520000690C046BD4607B0F0BDB0B588B000AF7860A3
S315200006A07B681A7814217B181A707B685A787B1815
S315200006B05A707B685B68FB612AE0FB691A780C211B
S315200006C07B181A70FB695A787B185A7014257B1987
S315200006D01A7808203B181A707B195A783B185A70DA
S315200006E07B181A783B189A700C007B185A783B189E
S315200006F0DA703B181800FFF72FFE3B191A787B1982
S315200007001A703B195A787B195A70FB695B68FB6132
S31520000710FB69002BD1D1C046C046BD4608B0B0BD4E
S3152000072080B584B000AF78607B681B681B68BB60AF
S315200007300023FB601BE07B68DA687B681B680C3350
S315200007401900FB685B00CB181B78D0187B681A69E8
S315200007507B681B680C331900FB685B00CB185B7841
S31520000760D318190000F0B6F8FB680133FB60FA686D
S31520000770BB689A42DFDBC046C046BD4604B080BD9A
S3152000078080B584B000AF78607B681B681B68BB604F
S315200007900023FB601BE07B68DA687B681B680C33F0
S315200007A01900FB685B00CB181B78D0187B681A6988
S315200007B07B681B680C331900FB685B00CB185B78E1
S315200007C0D318190000F089F8FB680133FB60FA683A
S315200007D0BB689A42DFDBC046C046BD4604B080BD3A
S315200007E080B584B000AF78607B681800FFF7C8FF3B
S315200007F07B685A687B68DB68D318FB607B689A68DD
S315200008007B681B69D318BB60FB68002B0CDC7B68FC
S315200008105B68D9175A184A407B685A607B685A68C1
S315200008207B68DB68D318FB60FB68802B0ADD7B685E
S315200008305B685A427B685A607B685A687B68DB68CB
S31520000840D318FB60BB68002B0CDC7B689B68D91730
S315200008505A184A407B689A607B689A687B681B694D
S31520000860D318BB60BB68402B0ADD7B689B685A4265
S315200008707B689A607B689A687B681B69D318BB6023
S315200008807B68FA68DA607B68BA681A617B68180048
S31520000890FFF746FFC046BD4604B080BD80B584B094
S315200008A000AFF860B9607A60FB68BA685A60FB6886
S315200008B07A689A60C046BD4604B080BD80B500AF58
S315200008C0C046BD4680BDC046F0DF7047C046F1DF5A
S315200008D07047C046F2DF7047C046F3DF7047C04618
S315200008E00C000000040000000400000000010002CB
S315200008F001000101010201030200020102020203BA
S3152000090003010302000000000000000000000000B8
S3152000091000000000000000000000000000000000B1
S315200009200000000000000000E00800200000000099
S315200009300000000001000000010000002107002047
S3152000094081070020E10700209D080020920000205A
S3152000095092000020EA00002092000020CC00002017
S31520000960DC000020BE00002092000020FA000020BB
S3152000097058020020380200204002002048020020B1
S31520000980500200200102030A0405060B0708090C81
S309200009900E000F0D13
S70520000000DA
