S010000064656275672F4D4F502E733139C2
S315200000000248854600F03AF8FEE7C04600C00120C7
S3152000001080B582B000AF0200FB1D1A70C0460B4BA4
S315200000201B889BB21A0080231340F8D0074AFB1D79
S315200000301B789BB29380FB1D1B780A2B02D10D20C7
S31520000040FFF7E6FFC046BD4602B080BD0010014066
S3152000005080B582B000AF786006E07B685A1C7A6073
S315200000601B781800FFF7D4FF7B681B78002BF4D190
S31520000070C046C046BD4602B080BDC04680B500AF72
S3152000008000F00AF8024B1A68024BD2B21A70F9E74E
S315200000901C020020140C024080B500AF1D4B182214
S315200000A01A601D4B1A681C4B8021C9010A431A602D
S315200000B01A4B1B4A1A601B4B1B4A1A601B4B1A68A9
S315200000C01A4B1B490A401A60184B1A68174B802195
S315200000D0C9010A431A60174B1A68164B08210A43AE
S315200000E01A60154B1A68144B08210A431A60134BE1
S315200000F01A68124B08218A431A60114B114A1A605A
S31520000100114B1A68104B802189000A431A60C04699
S31520000110BD4680BD303802404438024008ED00E03C
S3152000012000C00120000C02405555555508380140A5
S31520000130FF0FFFFF003C0140083C01400C3C014002
S3152000014064C001204D01002000E100E080B500AF31
S31520000150274B1B680822134046D0254B1A68244B90
S3152000016008210A431A60234B1B78DBB21A000123AD
S3152000017013400CD0204B1B78DBB21F4A10210B43B7
S31520000180DBB213701D4B1B685A1C1C4B1A60194B93
S315200001901B78DBB21A00022313400AD0164B1B78B9
S315200001A0DBB2154A20210B43DBB21370134B00221E
S315200001B01A60104B1B78DBB21A000423134013D0AD
S315200001C00D4B1B78DBB20C4A40210B43DBB213707C
S315200001D00B4B1B78DBB2002B03D0084B00221A6096
S315200001E002E0064BFF221A60C046BD4680BDC046CF
S315200001F0143C014010100240141002401C02002042
S31520000200140C0240F0DF7047C046F1DF7047C0464D
S31520000210F2DF7047C046F3DF7047C046000000009B
S70520000000DA
