S010000064656275672F4D4F502E733139C2
S315200000000248854600F03AF8FEE7C04600C00120C7
S3152000001080B582B000AF0200FB1D1A70C0460B4BA4
S315200000201B889BB21A0080231340F8D0074AFB1D79
S315200000301B789BB29380FB1D1B780A2B02D10D20C7
S31520000040FFF7E6FFC046BD4602B080BD0010014066
S3152000005080B582B000AF786006E07B685A1C7A6073
S315200000601B781800FFF7D4FF7B681B78002BF4D190
S31520000070C046C046BD4602B080BDC04680B500AF72
S3152000008000F00AF8024B1A68024BD2B21A70F9E74E
S315200000908C020020140C024080B500AF1A4B1822A7
S315200000A01A601A4B1A68194B8021C9010A431A6033
S315200000B0174B184A1A60184B184A1A60184B194AD7
S315200000C01A60194B1A68184B07210A431A60174BF6
S315200000D01A68164B07210A431A60154A144B1268F0
S315200000E01A60144B144A1A60144B154A1A60154BA1
S315200000F0154A1A60154B1A68144BE02149000A4329
S315200001001A60C046BD4680BD3038024044380240A1
S3152000011008ED00E000C00120000C02405555555561
S315200001200838014044040000003C0140083C0140DE
S315200001300C3C014060C00120510100205CC0012020
S315200001406301002058C001209101002000E100E059
S3152000015080B582B000AF64237B60C046BD4602B046
S3152000016080BD80B500AF084B1B680222134008D023
S31520000170064B00221A60044B1A68034B02210A43DD
S315200001801A60C046BD4680BD143C01408C0200204A
S3152000019080B500AF094B1B68012213400AD0074BDC
S315200001A01A68064B01210A431A60054B1B685A1C24
S315200001B0034B1A60C046BD4680BDC046143C014074
S315200001C08C02002080B500AF224B1B68082213400A
S315200001D03DD0204B1A681F4B08210A431A601E4B3C
S315200001E01B78DBB21A00012313400CD01B4B1B7863
S315200001F0DBB21A4A10210B43DBB21370184B1B6873
S315200002005A1C174B1A60144B1B78DBB21A000223B8
S3152000021013400AD0114B1B78DBB2104A20210B4326
S31520000220DBB213700E4B00221A600B4B1B78DBB22D
S315200002301A00042313400AD0084B1B78DBB2074A66
S3152000024040210B43DBB21370044BFF221A70C046C9
S31520000250BD4680BD143C01401010024014100240DF
S315200002608C020020F0DF7047C046F1DF7047C046A1
S31520000270F2DF7047C046F3DF7047C046000000003B
S315200002800000000000000000000000000000000048
S70520000000DA
