S010000064656275672F4D4F502E733139C2
S315200000000248854600F03AF8FEE7C04600C00120C7
S3152000001080B582B000AF0200FB1D1A70C0460B4BA4
S315200000201B889BB21A0080231340F8D0074AFB1D79
S315200000301B789BB29380FB1D1B780A2B02D10D20C7
S31520000040FFF7E6FFC046BD4602B080BD0010014066
S3152000005080B582B000AF786006E07B685A1C7A6073
S315200000601B781800FFF7D4FF7B681B78002BF4D190
S31520000070C046C046BD4602B080BDC04690B591B0D0
S3152000008000AF00F001FC00F002FC38203B18284AA3
S3152000009012CA12C330217B1814221A707B183722F9
S315200000A05A707B183A185A6028203B1846221A7034
S315200000B03B183C225A703B187A185A6020217B182C
S315200000C050221A707B1823225A707B183A185A60CD
S315200000D018203B1864221A703B1819225A703B18B4
S315200000E07A185A6010217B185A221A707B180A2215
S315200000F05A707B183A185A6008203B1828221A7022
S315200001003B185A225A703B187A185A603B00142220
S315200001101A703B0014225A703B003A185A603B0072
S31520000120180000F06DFB022000F053F8F7E7C046F8
S31520000130A008002080B500AF044B18221A60044B9B
S31520000140044A1A60C046BD4680BDC04630380240CB
S31520000150001002405555555580B500AF0C4B002276
S315200001601A600C4B29221A600B4B00221A60084B8E
S3152000017005221A60C046064B1A6880235B0213408C
S31520000180F9D1034B00221A60C046BD4680BDC04649
S3152000019010E000E014E000E018E000E080B584B054
S315200001A000AF78600023FB600AE0FFF7D5FFFFF77A
S315200001B0D3FFFFF7D1FFFFF7CFFFFB680133FB60CB
S315200001C0FB687A689A42F0D8C046C046BD4604B05D
S315200001D080BD80B582B000AF78607A6813005B017D
S315200001E09B1A9B009B18DB001800FFF7D7FFC04621
S315200001F0BD4602B080BD80B584B000AF0200FB1DB5
S315200002001A700A4A0F217B1812781A70FA1D7B1869
S3152000021012781B781343DBB2044A04210B43DBB26A
S315200002201370C046BD4604B080BDC04614100240BF
S3152000023080B584B000AF0200FB1D1A700D4A0F2155
S315200002407B1812781A70FB1D1B785BB2DB435BB2FE
S315200002507A18127852B213405AB27B181A70054A8D
S315200002607B181B7804210B43DBB21370C046BD46B6
S3152000027004B080BD1410024080B582B000AF0200E9
S31520000280FB1D1A70FFF768FF4020FFF7B4FF074AEF
S31520000290FB1D1B781370FFF75FFF4020FFF7C8FF99
S315200002A0FFF75AFFC046BD4602B080BD151002407A
S315200002B080B582B000AF0200FB1D1A700120FFF747
S315200002C0B7FF0220FFF7B4FFFB1D1B781800FFF7CE
S315200002D0D3FFC046BD4602B080BD80B582B000AF18
S315200002E00200FB1D1A700120FFF785FF0220FFF791
S315200002F09FFFFB1D1B781800FFF7BEFFC046BD46BB
S3152000030002B080BD80B582B000AF4020FFF773FFFA
S31520000310FFF722FFFFF720FF064AFB1D12781A700F
S315200003204020FFF785FFFB1D1B781800BD4602B055
S3152000033080BDC0461110024090B583B000AF0B4B74
S315200003400B4A1A600120FFF773FF0220FFF753FFC5
S31520000350FC1DFFF7D7FF03002370044B054A1A60E4
S31520000360FB1D1B781800BD4603B090BD001002404F
S31520000370555500005555555590B583B000AF0B4BDC
S315200003800B4A1A600120FFF736FF0220FFF733FFE2
S31520000390FC1DFFF7B7FF03002370044B054A1A60C4
S315200003A0FB1D1B781800BD4603B090BD001002400F
S315200003B0555500005555555580B582B000AF020001
S315200003C0FB1D1A70C046FFF7B7FF03001A008023F3
S315200003D01340802BF7D00820FFF7E0FEFB1D1B788B
S315200003E01800FFF765FF2D20FFF7D8FEC046BD4653
S315200003F002B080BD80B500AF3820FFF7DDFF0E20AC
S31520000400FFF7DAFF0120FFF7D7FF0620FFF7D4FF1B
S31520000410C046BD4680BD80B582B000AF0200FB1D40
S315200004201A70C046FFF788FF03001A008023134086
S31520000430802BF7D00820FFF7B1FEFB1D1B78180094
S31520000440FFF74BFF2D20FFF7A9FEC046BD4602B0A1
S3152000045080BD80B584B000AF786039607B68DAB241
S315200004600F217B18013A1A703B68022B04D17B18A6
S315200004707A18127840321A700F23FB181B788022C4
S3152000048052421343DBB21800FFF712FFC046BD46A7
S3152000049004B080BD80B584B000AF786039600F218C
S315200004A07B187A6812781A703B681A787B681A70FB
S315200004B03B687A1812781A70C046BD4604B080BDD3
S315200004C090B587B000AF78607B681B78002B05D18C
S315200004D07B681B78402B01D9012300E000231A1CDE
S315200004E001231340DAB27B689B78002B05D17B6809
S315200004F09B78402B01D9012300E00023191C0123FE
S315200005000B40DBB21343DBB21A007B685B78002B0F
S3152000051005D17B685B78802B01D9012300E000237D
S315200005201A437B68DB78002B05D17B68DB78802B30
S3152000053001D9012300E00023134301D00023B6E0B4
S315200005407B685B781A007B68DB78D31AD9175A1830
S315200005504A407B681B7819007B689B78CB1AD91791
S315200005605B184B409A4204DD1723FB1801221A70B0
S3152000057003E01723FB1800221A701723FB181B7899
S31520000580002B0ED07A687B68013319001000FFF724
S3152000059081FF7B689A1C7B68033319001000FFF7E4
S315200005A079FF7B681A787B689B789A420ED97A689D
S315200005B07B68023319001000FFF76CFF7B685A1C1A
S315200005C07B68033319001000FFF764FF7B68997876
S315200005D07B681A780F23FB188A1A1A707B68DB78D7
S315200005E01A007B685B78D31AD9175A184A400E230B
S315200005F0FB181A701623FB1800221A701523FB18F5
S315200006007A6852781A707B685A787B68DB789A42C7
S3152000061004D21423FB1801221A7003E01423FB18BA
S31520000620FF221A707B681B783B6139E01723FB1881
S315200006301B78002B08D01523FB181B783A6911006C
S31520000640180000F027F907E01523FB181A783B69F4
S315200006501100180000F01EF916203B1839180E223A
S31520000660BA18097812788A181A703B181B785A001B
S315200006700F243B191B789A420FDB1522BB18B91899
S315200006801422BA18097812788A181A703B18391861
S315200006903A19097812788A1A1A703B6901333B6134
S315200006A07B689B781A003B699342BFDD01231800C3
S315200006B0BD4607B090BDF0B587B000AF78607B68C7
S315200006C01A7814217B181A707B685A787B185A700E
S315200006D07B681A787B689B78D318DAB210257B1949
S315200006E01A707B685A787B195A700C26BB190C0035
S315200006F07A1812881A80BB1902217A1912885A523E
S31520000700BB191800FFF7DCFE7B681A787B689B789C
S31520000710D318DAB221007B181A707B685A787B18B6
S315200007205A707B681A787B689B78D318DAB27B1963
S315200007301A707B685A787B68DB78D318DAB27B1913
S315200007405A70BB190C007A1812881A80BB1902211C
S315200007507A1912885A52BB191800FFF7B1FE7B6826
S315200007601A787B689B78D318DAB221007B181A7026
S315200007707B685A787B68DB78D318DAB27B185A7094
S315200007807B681A787B191A707B685A787B68DB78C5
S31520000790D318DAB27B195A70BB190C007A18128852
S315200007A01A80BB1902217A1912885A52BB191800CD
S315200007B0FFF786FE7B681A7821007B181A707B6803
S315200007C05A787B68DB78D318DAB27B185A707B6844
S315200007D01A787B191A707B685A787B195A70BB195C
S315200007E07A1812881A80BB1902217A1912885A524D
S315200007F0BB191800FFF764FEC046BD4607B0F0BD22
S31520000800B0B588B000AF78607B681A7814217B1861
S315200008101A707B685A787B185A707B685B68FB6114
S315200008202AE0FB691A780C217B181A70FB695A7822
S315200008307B185A7014257B191A7808203B181A70D1
S315200008407B195A783B185A707B181A783B189A707D
S315200008500C007B185A783B18DA703B181800FFF703
S315200008602FFE3B191A787B191A703B195A787B1977
S315200008705A70FB695B68FB61FB69002BD1D1C046CE
S31520000880C046BD4608B0B0BDF0DF7047C046F1DFB8
S315200008907047C046F2DF7047C046F3DF7047C04658
S30D200008A0141400000000000002
S70520000000DA
